:020000000F28C7
:10000800DE00030E8312B4000408B5000A08B60027
:100018005F08B7008A288316FF23900083013629DA
:10002800F92083120515F430B8000130B900112108
:100038008312051122218312AC01AD01232803305C
:1000480083122702E93003192602031C2C282D28C5
:100058002F2843212F28013083122902F530031954
:100068002802031C382839283C28AC01AD013C285B
:10007800310830040319412842282328003021027E
:10008800053003192002031C4A284B285E2800303B
:100098002302053003192202031C532854285E2822
:1000A8000030250205300319240203185C285D2856
:1000B80085285E280130AC070318AD0A0030AD076B
:1000C80000302D02023003192C02031C6C286D2805
:1000D8007B2801302902F4300319280203187528F7
:1000E80076287B283D218312AC01AD01812864303C
:1000F800B8000030B900112181288312A801A90194
:10010800852822212328232823280F280B1C8D2803
:100118008E28C12831083004031D93289428BF284D
:100128000310851E0314003003180130B200B30118
:100138003208A0070318A10A3308A1070310051EF7
:100148000314003003180130B200B3013208A207CB
:100158000318A30A3308A3070310851D03140030EE
:1001680003180130B200B3013208A4070318A50A26
:100178003308A507BF280B10C1280B1DC428C528A4
:10018800EE280130AE070318AF0A0030AF07003081
:100198002F02653003192E02031CD328D428D8282F
:1001A8000130B0000030B1000130A6070318A70ADB
:1001B8000030A7070130AA070318AB0A0030AB07C5
:1001C8000130A8070318A90A0030A90708308100E0
:1001D8000B11EE283708DF0036088A00350884003E
:1001E800340E8300DE0E5E0E09003830831685005B
:1001F8000230831285008316950107308312990017
:1002080038308316960043218130831681000830E8
:1002180083128100A8308B0008008312AA01AB0169
:100228001629162939082B02031D1C2938082A0209
:10023800031C1F2920291629212908008312A0013F
:10024800A101A201A301A401A501B001B101AE0160
:10025800AF01080064008001840A04060319003411
:1002680004062F2983132030840032302E21830185
:100278001428831285100515A601A701080083120A
:06028800851405110800B9
:02400E009431EB
:00000001FF
